:020000040800F2
:10000000B8120020DD3100080106000803060008D0
:1000100000000000000000000000000000000000E0
:1000200000000000000000000000000007060008BB
:100030000000000000000000090600080B06000890
:10004000EF31000800000000EF310008EF31000838
:10005000EF31000877070008B308000879070008A7
:1000600000000000EF310008EF310008EF31000818
:10007000EF310008EF310008EF3100080000000008
:100080005F0700080000000000000000EF310008DA
:10009000EF310008EF310008EF310008EF310008C0
:1000A000EF310008EF310008EF310008FF060008CB
:1000B000EF31000800F002F800F03EF80CA030C864
:1000C000083824182D18A246671EAB4654465D46D4
:1000D000AC4201D100F030F87E460F3E0FCCB64660
:1000E0000126334200D0FB1AA246AB4633431847E1
:1000F0004C6400006C640000103A02D378C878C1E8
:10010000FAD8520701D330C830C101D504680C6059
:10011000704700000023002400250026103A01D378
:1001200078C1FBD8520700D330C100D50B607047AF
:100130001FB51FBD10B510BD06F082F91146FFF7BF
:10014000F7FF00F047FA06F09AF903B4FFF7F2FF61
:1001500003BC06F09FF9000070B505460C46164634
:1001600002E00FCC0FC5103E102EFAD2082E02D39B
:1001700003CC03C5083E042E07D301CC01C5361FAE
:1001800003E021782970641C6D1C761EF9D270BDC5
:100190001CB50121C80404F050F8FF200130009084
:1001A000012168460171002181710121C171032182
:1001B00041716946A54803F015FC1CBD3EB50446D7
:1001C0000D460121022004F054F801946846058090
:1001D00000210181418069469D4804F069FB0122AC
:1001E00011469B4804F0E4FF0121994804F0E5FB27
:1001F0003EBD00B589B01B216846017002214170E7
:100200000121817003F0A4FC0121480404F015F8D9
:100210000121880304F01FF801220921C80603F018
:100220006AFC01220A210920C00603F064FC0320B5
:1002300040020790022108A801700021817001216D
:10024000C1700321417007A90920C00603F0CAFB51
:10025000E12000020190002002900390049006909B
:100260000C20059001A97B4805F0C6F801217948CA
:1002700005F04BF901227849764805F0D7FA09B024
:1002800000BD10B50021734805F03FF910BD10B551
:1002900064217248006806F023F80446601E704925
:1002A000884200D90CE0601E6E4948610321081F96
:1002B00000F094F800206B4988610720086100BFB6
:1002C00010BD10B500F0BBFBFFF7E1FFFFF791FF9A
:1002D00010BD00BF5F49C969802211400029F9D0D3
:1002E0005C4920310881704700B5034603E0187867
:1002F0005B1CFFF7EEFF18780028F8D100BD70B541
:1003000005460C462646642C00DD6426002304E0E6
:10031000E85CFFF7DEFF581CC3B2B342F8DB70BDE8
:10032000704710B501F01FFF10BD10B54E480068B2
:100330007D21C90088420ED3FFF7F3FF0121080792
:1003400003F097FF0121084603F0B1FC02F07FFCA7
:1003500000204549086010BD00B587B00121880321
:1003600003F087FF0121880403F067FF00220D21BD
:100370003E4803F0C0FB00220E213C4803F0BBFBCB
:1003800000220F21394803F0B6FB072040030090FC
:10039000032168464171022101716946334803F027
:1003A00021FB28216846818200210182C181072129
:1003B00001830902818100210181C182FF21053170
:1003C000418101214902418202A9294803F0DDFF50
:1003D0000121274804F07BF807B000BD10B50028C4
:1003E00019DA244A03071B0F083B9B089B00D258CD
:1003F0008307DC0EFF23A3409A438B071B0E840761
:10040000E40EA3401A431B4B0407240F083CA40826
:10041000A4001A5118E0184A03231B02D2188308BB
:100420009B00D2588307DC0EFF23A3409A438B071F
:100430001B0E8407E40EA3401A430F4B032424022F
:100440001B198408A4001A5110BD000000080048C0
:10045000000400400038014005010500180000209C
:10046000FFFFFF0000E000E014000020000400484F
:10047000003800401CED00E000E100E0014605E02E
:10048000002001E000BF401C0928FBD30A46491E9A
:10049000002AF5D17047014606E0002001E000BFC8
:1004A000401C474A9042FAD30A46491E002AF4D11A
:1004B0007047F0B505460E461446424806600120D6
:1004C000A0404149097881433F480170002704E07A
:1004D0000120FFF7E0FF781CC7B2AF42F8DB12E063
:1004E0000120A04038490978084000280BD001209D
:1004F000A0403549097881433348017000203149D3
:1005000008600120F0BD2F4800680028E8D100BF36
:10051000F8E7FFB5064614461D462A4901980860CB
:1005200020780121A94088432070002704E00120A1
:10053000FFF7B1FF781CC7B2B742F8DB10E02078B4
:100540000121A940084000280AD020780121A940B3
:100550008843207000201B490860012004B0F0BDD2
:10056000184800680028EAD100BFF7E710B5024636
:100570000B460020002104E0545C2418A0B24C1C5F
:10058000A1B29942F8DB10BD30B502460B460F48C8
:10059000002111E0555C684000240AE0C507ED0F1A
:1005A000002D03D040080A4D684000E04008651C5B
:1005B000ECB2082CF2DB491C9942EBD330BD0000B1
:1005C000701700000400002000000020FFFF000062
:1005D00001A0000002F03BFB02F01CFE012002F033
:1005E0002FFE05F05DFDFFF7B7FE62B605F08EF950
:1005F0000621002005F0F1F901E000F09BFFFCE787
:10060000704700BFFEE77047704710B5D7480068D5
:10061000002804D0D5480068401ED4490860D4485A
:100620000068002804D0D2480068401ED049086005
:10063000D0480078C007C00F002814D0CE480078FA
:10064000022805DACC480078401CCB4908700AE043
:10065000C848007802210843C64908700846007857
:10066000400840000870C5480068C549884204D069
:10067000C2480068401CC1490860C048006864283E
:1006800015D90020BD490860BE49522000F0DFFBAB
:10069000002806D1BC48007804210843BA490870F4
:1006A00005E0B948007804218843B7490870B64886
:1006B0000078C007C00F002815D0B4480068401C5F
:1006C000B249086008460068FF21F53188420AD91E
:1006D00002F01BFBAC48007840084000AA490870B3
:1006E0000020AA490860AA4800687D21C900884204
:1006F00004D2A7480068401CA549086010BD10B589
:10070000A449A54805F0D2F8002827D099480078D8
:10071000012108439749087097480078022808DBB0
:1007200000209E490870934800780221884391492F
:10073000087000209049087098480078642802DB0F
:10074000002096490870944804F094FFC1B2934881
:100750000478601C914A10709148015510BD10B585
:100760000121904804F03DFD002803D001218D486F
:1007700004F04AFD10BD704710B5802002F0E8FD7E
:10078000002859D08048007804210840002853D11F
:100790007A4908607B49522000F059FB002806D1B5
:1007A00079480078042108437749087044E07E487E
:1007B0000078202108437C49087001F026FF7B491E
:1007C000087008460078002836D00020704908607C
:1007D0000021084602F0C8FC00BF01F016FF002807
:1007E000FBD101F0B3FC714800780C2808D1FF223E
:1007F00014216F4805F04BFD00206E4908701BE086
:100800006A4800780B2806D16B4800780821084315
:100810006949087010E065480178664802780078F8
:10082000401C644B187062488154184600781428A4
:1008300002DB132019460870802002F086FDFF209D
:10084000013002F085FD002808D0002050490860E2
:10085000554800780821084353490870FF200130AB
:1008600002F073FD0120400202F072FD002808D062
:100870000020474908604C480078802108434A49D5
:1008800008700120400202F060FD0120800302F0A8
:100890005FFD002808D000203D49086042480078EC
:1008A00040210843404908700120800302F04DFDBB
:1008B00010BD10B5042002F04BFD002851D03F4878
:1008C000807C04283CD13D494868022105F0DFF9CD
:1008D0003A4840684078FF2829D110203749887469
:1008E00000200882AA224868402105F0D0FC402060
:1008F000324949680870FF20304949684870012032
:100900002E49496888702D494968C8702B4A526839
:1009100011782A4A506805F0D7F90120FFF7BBFD8E
:10092000002026494881402005F0E3F919E005F050
:100930001AFA05F0E6F9002020498874888110E051
:1009400040211F4805F0A3F901201E490870052029
:10095000FFF794FD402005F0CCF90021084602F095
:1009600003FC042002F0F1FC10BD00000400002094
:100970000800002000000020020000200C000020E1
:10098000FFFF00002C0000205E000020100000206F
:10099000140000200501050000380140010000207E
:1009A0007C000020000400405F0000206800002060
:1009B000A809002067000020600000203C0C0020F7
:1009C000BC0900207900002011205F4908605F48C1
:1009D00040685E494860084640684860084640688C
:1009E0003F21090488435949486008464068052169
:1009F000C9040843554948600846006801210906B2
:100A000008435249086000BF504800680121490668
:100A100008400028F8D04D484068800880004B49C5
:100A2000486008464068022108434849486000BFC2
:100A3000464840680C2108400828F9D1704710B595
:100A40004248006801210843404908600846406860
:100A50003F4908403D494860084600683D49084014
:100A60003A490860084600680121890488433749EB
:100A70000860084640683F210904884333494860BC
:100A80000846C06A00090001C8620846006BFF21E1
:100A9000543188432D4908630846406B40084000A4
:100AA000486300208860FFF78FFF10BDF8B5002570
:100AB000002400260027254840680C2108400546F0
:100AC000002D04D0042D06D0082D2AD107E022489D
:100AD0002249086029E020482049086025E01B4899
:100AE00040680F21890408400446184840680121E5
:100AF000090408400646A00C841C002E04D11848A6
:100B00006043164908600BE01048C06A0007000FF8
:100B1000471C3946104805F0E3FB60430F49086065
:100B200003E00D480D49086000BF00BF074840685A
:100B3000F021084000090B490D5C08480068E840B6
:100B400006490860F8BD0000002002400010024085
:100B50000CB8FFF8FFFFF6FE00127A001800002024
:100B600000093D001C000020F8B506460D46202077
:100B7000FE4908810220FE490881FFF77FFC7000D2
:100B80007E210840074608241EE080203840802847
:100B900003D10921C906886102E08020F349088158
:100BA0000220FFF76BFC20200921C9068861022082
:100BB000FFF764FC7806070E2020EC49088102202C
:100BC000FFF75CFC601EC4B2002CDEDC08241EE0D3
:100BD00080202840802803D10921C906886102E0CD
:100BE0008020E24908810220FFF748FC20200921EB
:100BF000C90688610220FFF741FC6806050E202027
:100C0000DA4908810220FFF739FC601EC4B2002CCB
:100C1000DEDC0220D6492039886120200921C9065E
:100C20008861F8BDF8B5064600252020CF49088127
:100C30000220CF490881FFF721FC70007E21084087
:100C40000746803708241EE080203840802803D1E2
:100C50000921C906886102E08020C4490881022078
:100C6000FFF70CFC20200921C90688610220FFF74C
:100C700005FC7806070E2020BC4908810220FFF7FA
:100C8000FDFB601EC4B2002CDEDC082416E0202030
:100C90000921C90688610220FFF7F0FB6806050EEE
:100CA00040210920C00602F000FF05432020AF4983
:100CB00008810220FFF7E2FB601EC4B2002CE6DCD4
:100CC0000220FFF7DBFB0220A949203988612020A0
:100CD0000921C90688612846F8BD70B505460C464D
:100CE00000262846FFF79EFF064630462043014671
:100CF0002846FFF739FF70BD70B505460C46002643
:100D00002846FFF78FFF06463046A0430146284697
:100D1000FFF72AFF70BDFFB583B0064602200290A0
:100D20000020019000900C2E06D00E2E09D112202A
:100D300001901020009005E0772001903020009075
:100D400000E000BF00BF802201981043014602204E
:100D5000FFF70AFF80210420FFF7CEFF00210120CA
:100D6000FFF702FF80210A20FFF7B7FF002505E00B
:100D70000498415D0920FFF7F7FE6D1C0598854238
:100D8000F6D331460120FFF7EFFE0C2E03D1802170
:100D90000D20FFF7A2FF4B25ED0000BF0420FFF759
:100DA00041FF04466D1E002D07D0E007C00F00284C
:100DB00003D1009820400028F0D080210D20FFF7BB
:100DC0009BFF002D38D00620FFF72CFF1B21084089
:100DD00000282FD1029001982040C007C00F0028A2
:100DE00001D0012002900C2E26D10A20FFF71AFF15
:100DF00004460C20FFF716FF47077F0F002F05D092
:100E0000601EC000C1190C98016002E0E1000C985E
:100E10000160002C00D10124122C00DD12240025D9
:100E200005E00920FFF7FEFE069948556D1CA54216
:100E3000F7D301E00220029080210C20FFF74DFF44
:100E400000210120FFF790FE029807B0F0BD70B5B9
:100E500088B005460C4608210846FFF74DFF0721DC
:100E60000D20FFF781FE03211420FFF736FF6846AF
:100E7000057207A802AB012202A900900C20FFF71F
:100E80004AFF0646002E09D10798102806D1684669
:100E9000007A20706846407A607000E00226304692
:100EA00008B070BDF0B587B0054600270821084698
:100EB000FFF722FF00210D20FFF756FE80210E20B4
:100EC000FFF71AFF9321684601712021417106A89E
:100ED00001AB022201A900900C20FFF71CFF06467F
:100EE000002E10D1002407E001A8005D285501A8BC
:100EF000005D4740601CC4B2042CF5DB01A8005D16
:100F0000B84200D0022680210E20FFF7E6FE3046D0
:100F100007B0F0BDF7B50746154604210520FFF7D9
:100F2000EBFE00210120FFF71FFE80210A20FFF7C2
:100F3000D4FE002405E0395D0920FFF715FE601C92
:100F4000C4B201988442F6DB03210120FFF70CFEB6
:100F5000FF2400BF0520FFF765FE0646601EC4B2F1
:100F6000002C08D004203040002803E02000004876
:100F700020040048EED02220FFF754FE28702120E4
:100F8000FFF750FE6870FEBD70B588B0054693212E
:100F900068460172702141720021817300240BE0C8
:100FA000295D02AAA01C11546946887B295D48402E
:100FB00069468873601CC4B2042CF1DB03AA0332B7
:100FC000072102A8FFF7A6FF08210846FFF794FEB5
:100FD00007A802AB092202A900900C20FFF79BFE94
:100FE0000646002E03D10798182800D100E00226FB
:100FF000304608B070BDFFB587B006460F4668465C
:1010000006714771002406E00998015D01AAA01C41
:101010001154601CC4B2062CF6DB002407E00A98C9
:10102000015D01AA204608301154601CC4B2062C90
:10103000F5DB06A801AB0C2201A900900E20FFF7FA
:101040006AFE0546002D06D10820FFF7EBFD0821BA
:101050000840002800D1022528460BB0F0BDF0B5AD
:1010600087B005460E463021684601714571821DE4
:10107000022101A8FFF74EFF06A801AB042201A937
:1010800000900C20FFF747FE0746002F0CD1069872
:10109000902809D1002404E001A8005D3055601CAF
:1010A000C4B2102CF8DB00E00227384607B0F0BDD0
:1010B000F0B587B006460F46A0216846017146711B
:1010C000821D022101A8FFF725FF06A801AB04221B
:1010D00001A900900C20FFF71EFE0546002D08D147
:1010E0000698042805D1684600790007000F0A28F1
:1010F00000D00225002D22D1002404E0385D01A992
:101100000855601CC4B2102CF8DB05AA102101A8F8
:10111000FFF700FF06A801AB122201A900900C20E6
:10112000FFF7F9FD0546002D08D10698042805D1E2
:10113000684600790007000F0A2800D002252846DB
:1011400007B0F0BDF7B588B007460E46684607728F
:10115000467202AA0232022102A8FFF7DBFE07A8AC
:1011600002AB042202A900900C20FFF7D4FD044634
:10117000002C08D10798042805D16846007A00079A
:10118000000F0A2800D00224002C1CD1002505E005
:101190000A98405D02A94855681CC5B2102DF7DBBE
:1011A00003AA042102A8FFF7B5FE0020079007A8B4
:1011B00002AB062202A900900C20FFF7ACFD04460A
:1011C000022C00D00024002C1ED1B02168460172F0
:1011D000467202AA0232022102A8FFF79BFE07A86C
:1011E00002AB042202A900900C20FFF794FD0446F4
:1011F000002C08D10798042805D16846007A00071A
:10120000000F0A2800D0022420460BB0F0BD70B5B4
:1012100088B005460E46C22168460172457202AA90
:101220000232022102A8FFF775FE07A802AB0422D2
:1012300002A900900C20FFF76EFD0446002C08D197
:101240000798042805D16846007A0007000F0A288D
:1012500000D00224002C16D1002168460172417290
:101260008172C17203AA042102A8FFF753FE07A8E6
:1012700002AB062202A900900C20FFF74CFD0446A9
:10128000022C00D00024002C02D0022008B070BD37
:10129000B02168460172467202AA0232022102A8F7
:1012A000FFF738FE07A802AB042202A900900C2029
:1012B000FFF731FD0446002C08D10798042805D11A
:1012C0006846007A0007000F0A2800D00224204652
:1012D000DCE700B587B050216846017100214171FB
:1012E000821D022101A8FFF715FE06A801AB04220A
:1012F00001A900900C20FFF70EFD002007B000BDF3
:1013000010B50120AF4988610220FFF7C4F8012021
:10131000AC4920310881C820FFF7BDF80120A94958
:1013200088611420FFF7B7F80F210120FFF71CFC9C
:101330001420FFF7B0F83D211120FFF715FC1E2106
:101340002D20FFF711FC00212C20FFF70DFC8D2133
:101350002A20FFF709FC3E212B20FFF705FC402146
:101360001520FFF701FC80213320FFF7C5FC402149
:101370001520FFF7F9FB002010BD10B51420FFF772
:1013800051FC0446A007800F002803D1032114203C
:10139000FFF7A3FC10BD10B503211420FFF7ACFC30
:1013A00010BD1CB50121880402F047FF0320009006
:1013B000012168460171002181710121C171032160
:1013C000417169467F4802F00DFB1CBD1CB501212F
:1013D000480402F032FFA02000900121684601710C
:1013E000002181710121C1710321417169460920E8
:1013F000C00602F0F7FA1CBD1CB50121480402F03A
:101400001CFF402000900021684601710121C1713C
:101410000321417169460920C00602F0E3FA1CBDB0
:1014200010B5044608210846FFF766FC3D2111204F
:10143000FFF79AFB86211720FFF796FB7F212620D6
:10144000FFF792FB1E212D20FFF78EFB00212C20A1
:10145000FFF78AFB8D212A20FFF786FB3E212B20F8
:10146000FFF782FBFF20F530FFF715F8FFF785FF48
:1014700010BD10B5FFF795FFFFF7A8FFFFF7BCFF02
:10148000FFF73EFF0020FFF7CBFF3720FFF7CAFB37
:1014900010BD10B5FFF71DFF10BD70B5044600214B
:1014A000012001F061FE2046FFF7FCFC0546002DFF
:1014B00001D0012070BD0020FCE738B5044600F0E3
:1014C000CBF905466846FFF7E8FF00280ED16A46CB
:1014D0002946204600F0D6F90021022001F044FE02
:1014E00001F02CFB32203849087003E00021142061
:1014F00001F03AFE002038BD08B56846FFF7CDFF81
:10150000002803D000210A2001F02EFE002008BD93
:1015100038B5002000906D462846FFF7C3FC04460E
:10152000002C03D001F045FE012038BD01F03BFE48
:101530000020FAE710B5244800780C2835D00D2893
:1015400034D0312802D0322831D122E000201F4986
:1015500008601F48007804210840002803D00120BB
:101560001C49087000E023E01B4800780421084073
:1015700000280DD017480078012809D101F0EAFAB7
:1015800000210A2001F0F0FD00242046FFF795FF1E
:101590000EE00F48007804210840002804D0002005
:1015A0000A490860FFF7B4FF02E001E000E000BF75
:1015B00000BF10BD10B5FFF7ABFF7D20C000FEF7E8
:1015C0006AFF10BD000400485C00002014000020E9
:1015D0005E0000205D0000206000002070B5044621
:1015E0000D46AE0A342002F0B3F90420D549087044
:1015F00001F0E9FE07E0204601F027FFD14908701D
:101600000120800224183046761E002803D0CD48E1
:1016100000780428EFD001F0E2FE70BD10B503465B
:101620000C46002102E0585C6054491C9142FAD3F8
:10163000002010BDFEB507460D461646F003000C0F
:10164000009031463846FFF7C9FFBE4800780428AD
:1016500001D00120FEBD01F0B6FE002416E06000BE
:10166000401C285C00026100695C401880B2019057
:101670006100C819019901F062FFB249087008467B
:101680000078042801D00220E4E7641C009884421A
:10169000E5D301F0A4FE0020DCE710B504460122EA
:1016A0009202A949A948FFF7B9FFA748007820701E
:1016B000002010BD10B50446012292022146A34825
:1016C000FFF7B8FF002010BD10B5044610229E4958
:1016D0009F48FFF7A3FF9C480078552801D00120C0
:1016E00010BD9948C078552801D00220F8E706229D
:1016F0009549091D204604F089FD0020F0E710B54A
:101700000446552090490870002048708870552084
:10171000C870062221468C48001D04F077FD012286
:10172000D20289498A48FFF785FF002010BD10B515
:101730000122D20284498748FFF770FF002408E0A5
:10174000A0008149085C552801D0204610BD601CCE
:1017500084B2FF202D308442F2DB0020F6E738B55A
:1017600005460C460122D20277497A48FFF756FF18
:101770005521684601704570FF202D30844201DDFF
:10178000012038BDA100704A88180422694604F07F
:101790003DFD0122D2026C496E48FFF74BFF00204D
:1017A000EFE710B50122D20267496948FFF736FF1B
:1017B000002408E0A0006449085C002801D120460C
:1017C00010BD601C84B2642CF4DB0020F8E710B577
:1017D0000122D2025C495E48FFF720FF002408E0A6
:1017E00020015949085C552801D0204610BD601CD5
:1017F00084B2642CF4DB0020F8E77FB504460D4684
:10180000002C02D1012004B070BD0122D2024E4949
:101810004F48FFF703FF55216846017044700021CF
:10182000417081705521C1700622294601A804F03B
:10183000EDFC642C01DD0120E5E72101424A881816
:101840001022694604F0E2FC0122D2023E494048DF
:10185000FFF7F0FE0020D6E710B50122D2023A4988
:101860003D48FFF7DBFE002408E060013649085CD4
:10187000552801D0204610BD601C84B21E2CF4DB1C
:101880000020F8E7F0B589B007460E461446022559
:10189000AA022D493048FFF7C1FE55216846017163
:1018A0004771227829466D1C01A842546278294666
:1018B0006D1C4254A27829466D1C4254E278294698
:1018C0006D1C42541E2E02DD012009B0F0BD7101D5
:1018D0001D4A8818202201A904F098FC0122D20296
:1018E00019491D48FFF7A6FE0020EEE7F0B50646B1
:1018F0000122D20214491848FFF790FE00241CE090
:1019000060011149085C552815D1002700250BE01E
:101910006001801C40190C49085C715D884201D04F
:10192000012703E0681CC5B2042DF1DB00BF002FC6
:1019300001D10020F0BD601CC4B21E2CE0DB0120F0
:10194000F8E7000058000020A8010020006000080F
:1019500000610008006900080071000800B585B04A
:101960000121084602F077FC0121480402F065FCE1
:10197000FF20013003900021684601740121C174E9
:101980000321417403A90920C00602F02BF80821A5
:10199000002002F0EBFEFF2001300190002168469C
:1019A0000172082141720121817201A801F072FCCB
:1019B00007216846017001214170817002F0C8F86A
:1019C00005B000BD1CB50121C80402F036FC0120A1
:1019D00040030090012168460171002181710121BD
:1019E000C171032141716946F94801F0FBFF1CBD3B
:1019F00001204003F64920310881704710B5FFF7F8
:101A0000ADFFFFF7DFFFFFF7F3FF10BD10B5FFF7E6
:101A1000A5FFFFF7D7FFFFF7EBFF10BD10B5FF21C4
:101A200001310920C00602F040F810BD10B50120B8
:101A30004003E7498861012228210020FEF739FD93
:101A400010BDF8B505460E4600240722E149E248DC
:101A500004F0DCFB00222046641CC01DDE490A5451
:101A600008222046641CC01D0A5432222046641CF1
:101A7000C01D0A5402222046641CC01D0A542A12AA
:101A80002046641CC01D0A542046641CC01D0D5411
:101A900032122046641CC01D0A542046611CCCB280
:101AA000C01DCD490E54611CCB48801DFEF75EFD64
:101AB00007463A122046611CCCB2C01DC6490A54E2
:101AC0002046611CCCB2C01DC3490F54E01DC1B2F9
:101AD000C148FEF714FC0020F8BD70B5054600248F
:101AE0000722BC49BC4804F091FB00222046641C3C
:101AF000C01DB9490A5408222046641CC01D0A545E
:101B000031222046641CC01D0A542A122046641C3F
:101B1000C01D0A542046641CC01D0D5402222046DC
:101B2000641CC01D0A5400222046641CC01D0A54B7
:101B30002046611CCCB2C01DA7490A54611CA648AE
:101B4000801DFEF713FD064632122046611CCCB202
:101B5000C01DA1490A542046611CCCB2C01D9E493B
:101B60000E54E01DC1B29C48FEF7C9FB002070BDB9
:101B7000F8B505460E46002407229649964804F01B
:101B800045FB00222046641CC01D93490A540722CD
:101B90002046641CC01D0A540C222046641CC01D33
:101BA0000A542A122046641CC01D0A542046641C94
:101BB000C01D0D5432122046641CC01D0A5420461C
:101BC000641CC01D0E54611C8348801DFEF7CEFCB2
:101BD00007463A122046611CCCB2C01D7E490A5409
:101BE0002046611CCCB2C01D7B490F54E01DC1B220
:101BF0007948FEF784FB0020F8BD70B50024072269
:101C00007449754804F002FB00222046641CC01D84
:101C100071490A5403222046641CC01D0A540D2237
:101C20002046641CC01D0A54611C6B48801DFEF7D1
:101C30009DFC05462A122046641CC01D66490A54B4
:101C40002046641CC01D0D54E11D6348FEF757FB80
:101C5000002070BDF8B506467D20C0005F490860D1
:101C60008CE00122C8210020FEF723FC0128F7D1D7
:101C70005B48047800205A49087000250FE0594855
:101C8000405D54490978884207D15649681C085C70
:101C900050494978884200D103E0681CC5B2A5428A
:101CA000EDDB00BF2F463D46601B84B2002C65DD96
:101CB0004C48C11922464C4804F0A8FA5CE0312E89
:101CC00026D14948407A002809D14748807A062819
:101CD00005D14548C07AF22801D10020F8BD42481C
:101CE000407A00280BD14048807A022807D13E482C
:101CF000C07A012803D100210F2001F035FA0E2C03
:101D000002DB20460E3884B20E2C35DA002433E094
:101D1000322E2AD13448807A052806D13248407ABA
:101D2000002800D1DAE70920D8E72F48807A012877
:101D30000AD12D48407A002804D10021012001F069
:101D400013FA09E02620C9E72748807A002803D142
:101D50000021012001F008FA112C02DB2046113885
:101D600084B2112C08DA002406E0002E04D11E48AB
:101D7000407A002800D1B1E7002CA0D117480068B4
:101D8000002800D06DE72620A8E770B50546FFF7CC
:101D9000CEFC06463046FFF7A0FE3120FFF75AFF83
:101DA0000446002C0ED10021022001F0DDF931465D
:101DB0002846FFF7D4FC00F0C1FE32200B49087022
:101DC000002070BD0021152001F0CEF92046F8E773
:101DD00000080048A2640008440100200800002018
:101DE000010000207C000020E00000205C000020BA
:101DF00010B500214E48FFF724FE3220FFF72AFFDE
:101E00000446002C0DD10021022001F0ADF900F0B4
:101E100068FF4848007801210843464908700020BF
:101E200010BD092C04D10021142001F09DF905E01A
:101E3000262C03D100210C2001F096F92046EFE773
:101E400070B5054601212846FFF792FE0020FFF7F6
:101E500001FF0446002C00D170BD2046FCE710B500
:101E6000FFF7CBFE0020FFF7F5FE0446002C00D163
:101E700010BD0021122001F077F92046F8E710B5D7
:101E80002D4800780C2849D00D2848D0312802D0A0
:101E9000322849D126E02948007808210840002846
:101EA00008D0264800788843244908700220244935
:101EB000087000E039E02348007804210840002839
:101EC0000FD01F48007802280BD100F043FE0021FC
:101ED0000C2001F049F9FFF7A9FD00242046FFF787
:101EE00054FF22E01548007808210840002814D04B
:101EF00010480078C007C00F00280ED10F480078A6
:101F000088430E490870FFF789FD012805D1FFF7C6
:101F10008DFDFFF76DFFFFF76BFD06E005E0FFF7B6
:101F200085FDFFF79CFF00E000BF00BF10BD000073
:101F3000FFFF00005E0000205C0000205F0000202A
:101F40005D0000206000002000B585B0012108463A
:101F500002F081F90121480402F06FF90120000329
:101F600003900021684601740121C174032141746A
:101F700003A90920C00601F035FD0921002002F067
:101F8000F5FB0120000301900021684601720C213D
:101F900041720121817201A801F07CF90721684694
:101FA000017001214170817001F0D2FD05B000BDCA
:101FB00000B585B00121084602F04DF90121480421
:101FC00002F03BF90120C002039000216846017431
:101FD0000121C1740321417403A90920C00601F045
:101FE00001FD0021084602F0C1FB0120C002019062
:101FF0000021684601720C2141720121817201A801
:1020000001F048F907216846017001214170817093
:1020100001F09EFD05B000BD00B585B00121084668
:1020200002F019F90121880402F007F90120800368
:1020300003900021684601740121C1740321417499
:1020400003A9F74801F0CEFC0E21012002F08EFB1F
:102050000120800301900021684601720C21417229
:102060000121817201A801F015F90721684601706C
:1020700001214170817001F06BFD05B000BD00B51C
:1020800085B00121084602F0E6F80121880402F03B
:10209000D4F8012040020390002168460174012118
:1020A000C1740321417403A9DD4801F09BFC09219F
:1020B000012002F05BFB01204002019000216846F4
:1020C00001720C2141720121817201A801F0E2F834
:1020D00007216846017001214170817001F038FDCF
:1020E00005B000BD10B5012109030920C00601F0AB
:1020F000DCFC10BD10B50121C9020920C00601F0A9
:10210000D4FC10BD10B501218903C54801F0CDFCF8
:1021100010BD1CB50121480402F08FF80120C00356
:102120000090012168460171002181710121C17176
:102130000321417169460920C00601F053FC1CBD12
:102140000121C9030922D206916170470120C00311
:10215000B4490881704710B5FFF75EFFFFF78FFFA6
:10216000FFF7D7FF10BD0120C0030921C906886110
:10217000704700B585B00121084602F06CF80121D6
:10218000880402F05AF88020039000216846017408
:102190000121C1740321417403A9A14801F022FC6B
:1021A0000721012002F0E2FA802001900021684618
:1021B00001720C2141720121817201A801F06AF8BB
:1021C00007216846017001214170817001F0C0FC57
:1021D00005B000BD1CB50121880402F02EF8FF20D7
:1021E00001300090012168460171002181710121B7
:1021F000C171032141716946894801F0F3FB1CBD9F
:102200001CB50121880402F018F86020009001211B
:1022100068460171002181710121C1710321417161
:1022200069467F4801F0DEFB1CBD1CB50121880416
:1022300002F003F82020009001216846017100217E
:1022400081710121C171032141712020744988618C
:102250006946734801F0C6FB1CBD1CB5012188040A
:1022600001F0EBFF20200090002168460171012160
:10227000C171032141716946694801F0B3FB1CBD7E
:10228000002000E0401CC828FCDB704710B520216E
:10229000634801F00AFC10BD10B5FFF7C6FF20200F
:1022A0005F49886140208861FFF7EAFF20205C4990
:1022B00020310881FFF7E4FF40205949203108818F
:1022C000FFF7DEFF10BD10B5FFF7AFFF2020544928
:1022D00020310881402052498861FFF7D1FF20203A
:1022E0004F498861FFF7CCFF10BD10B5FFF79DFF88
:1022F00020204B492031088140200881FFF7C0FF92
:10230000402047498861FFF7BBFF40204449203106
:102310000881FFF7B5FF10BD10B5FFF79EFF402005
:102320003F4920310881FFF7ABFF40203C498861DD
:10233000FFF7A6FFFFF7AAFF0446402038492031E7
:102340000881FFF79DFF204610BD70B50546FFF7D9
:102350006CFF002423E04020314920310881072010
:10236000011B012088402840002803D020202C4950
:10237000886103E020202A4920310881FFF780FF8F
:10238000402027498861FFF77BFF40202449203106
:102390000881072C00D104E0FFF772FF641C082CB1
:1023A000D9DB00BFFFF7B8FF002801D1012070BDC5
:1023B0000020FCE770B50024FFF74FFF002515E073
:1023C0004020174920310881FFF75AFF4020144967
:1023D0008861FFF755FFFFF759FF0419640040209B
:1023E0000F4920310881FFF74BFF6D1C082DE7DBFB
:1023F000601070BDF7B582B006460F460020019010
:10240000FFF761FF00BF0124FFF746FFF0B2FFF7BF
:102410009CFF0546002C07D0002D05D0012004E0CC
:10242000000400482000004800200446F8B2FFF7EE
:102430008CFF0546002C03D0002D01D0012000E0C8
:10244000002004460498FFF780FF0546002C03D0C7
:10245000002D01D0012000E000200446FFF733FFEB
:10246000002C00D005E00198401C0190019805283F
:10247000C9DB00BF2020FE4908814020088120469A
:1024800005B0F0BDF7B582B005460F4600200190BB
:10249000FFF719FF00BF0124FFF7FEFEE8B2FFF7C8
:1024A00054FF0646002C03D0002E01D0012000E08E
:1024B00000200446F8B2FFF748FF0646002C03D080
:1024C000002E01D0012000E000200446FFF7D8FED6
:1024D000FFF7E2FE691CC8B2FFF737FF0646002C83
:1024E00003D0002E01D0012000E000200446FFF7B9
:1024F00061FFC1B204980170FFF70EFFFFF7E3FE22
:10250000002C00D005E00198401C0190019805289E
:10251000C1DB00BF2020D649088140200881204629
:1025200005B0F0BD10B5FFF76BFEFFF722FEFFF719
:1025300051FE6420FDF7AFFFFF200130CC49088138
:102540000F220921D020FFF755FF88220221D02039
:10255000FFF750FF88220321D020FFF74BFF88228E
:102560000421D020FFF746FF88220521D020FFF765
:1025700041FF88220621D020FFF73CFF8822072157
:10258000D020FFF737FF33220821D020FFF732FF9A
:1025900000220A21D020FFF72DFF00220B21D0209E
:1025A000FFF728FF00220C21D020FFF723FF002295
:1025B0000D21D020FFF71EFF03220921D020FFF7B5
:1025C00019FF10BD10B507220921D020FFF712FF17
:1025D00010BD10B5FFF7F6FFFF200130A4492039E8
:1025E000886110BD10B50F220921D020FFF702FF2E
:1025F00003220921D020FFF7FDFE10BD10B50322F4
:102600000921D020FFF7F6FE10BD0EB502AA102159
:10261000D020FFF737FF01AA1121D020FFF732FFAA
:102620006A461221D020FFF72DFF6846007A800706
:10263000800F022804DB0320FFF782FD0B200EBD74
:102640006846007A0007800F022804DB0620FFF7A7
:1026500077FD0920F3E76846007A8006800F02289C
:1026600004DB0920FFF76CFD0320E8E76846007AE9
:102670008011022804DB0C20FFF762FD0620DEE754
:10268000684600798007800F022804DB0520FFF7E9
:1026900057FD0A20D3E7684600790007800F02281B
:1026A00004DB0220FFF74CFD0820C8E768460079EC
:1026B0008006800F022804DB0820FFF741FD02207E
:1026C000BDE7684600798011022804DB0B20FFF784
:1026D00037FD0520B3E7684600788007800F0228A1
:1026E00004DB0A20FFF72CFD0C20A8E768460078E1
:1026F0000007800F022804DB0720FFF721FD0720D9
:102700009DE7684600788006800F022804DB0420DD
:10271000FFF716FD012092E7684600788011022835
:1027200004DB0120FFF70CFD042088E7002086E78A
:1027300030B503460C46002212E0002107E0501895
:10274000205C5D5CA84200D003E0481CC1B20629B1
:10275000F5DB00BF062901DB002030BD501CC2B2F2
:102760000E2AEADB0120F8E710B504460323414AAC
:102770007D21C9000020FDF7CCFE00280CD03E488A
:102780000078062801DA022010BD06223B492046C7
:1027900003F03CFD0020F7E70120F5E770B50646A1
:1027A0000122D20236493748FEF738FF002411E0F3
:1027B00020013349085C55280AD12101091D304AFE
:1027C00088183146FFF7B4FF0546002D00D170BDD3
:1027D000601CC4B2642CEBDB0120F8E77FB5FEF788
:1027E000F6FF054602A8FFF7BFFF0446002C1DD1E7
:1027F00000210F2000F0B8FC6846FFF7B5FF044643
:10280000002C13D1694602A8FFF792FF0446002C62
:102810000CD102A92846FEF7F0FF0021022000F0AB
:10282000A3FC00F08BF9322017490870022C04D168
:102830000021082000F098FC05E0012C03D10021C4
:10284000142000F091FC002004B070BD10B50A48BF
:102850000078062831DB0948FFF7A0FF0446002C6A
:1028600026D10021022000F07FFC00F03AFA0DE0B2
:10287000200400486000002067000020A809002014
:10288000A8010020006100085C0000208948007851
:10289000012108438749087000F050F93220864929
:1028A000087086480078022108438449087008E0CF
:1028B0000021072000F058FC03E00021082000F070
:1028C00053FC002010BD10B57B4800780C2836D092
:1028D0000D2835D0312802D0322832D119E077487E
:1028E000007808210840002803D0032074490870AC
:1028F00000E027E07148007804210840002807D054
:1029000000F028F900210F2000F02EFCFFF766FFF1
:1029100018E06A4800780821084000280ED0654871
:102920000078C007C00F002808D1644800788843A9
:1029300062490870FFF78AFF00F00CF902E001E03D
:1029400000E000BF00BF10BD10B55E480078202138
:10295000084000283BD05B480078884359490870FC
:10296000594804780C2C05D100F0E8F8322052497F
:1029700008702CE00B2C2AD1504800781021084018
:10298000002824D04D480078082188434B4908701E
:102990004E494F48FFF7CCFE002810D100211320EC
:1029A00000F0E2FB454800780421084343490870E1
:1029B00008460078102188434049087005E00F213F
:1029C000142000F0D1FB00F0B9F800F0C3F83D4846
:1029D000007840210840002869D0FFF793FB0028C9
:1029E00065D1C820FDF757FDFFF78CFB012800D10A
:1029F00010BD7D20C000FDF74EFDFFF783FB0128D1
:102A000013D131202C49087000210E2000F0ACFBBE
:102A10002A480078102108432849087008460078A1
:102A20000421884325490870E2E77D200001FDF775
:102A300032FDFFF767FB002839D10221162000F094
:102A400093FBFEF7F3FFFFF70AFA002803D00021FB
:102A5000152000F089FB012189021E4803F03CFC8F
:102A6000012292021B491C48FEF7E4FD0122D2021A
:102A700018491A48FEF7DEFD0122D202154918480E
:102A8000FEF7D8FD0122D20212491648FEF7D2FD08
:102A90007D20C000FDF7FFFC00BFBFF34F8F124841
:102AA0001249C860BFF34F8F00BF00BFFEE700BFF1
:102AB0009EE700005E0000205C0000206000002017
:102AC0005D0000205F00002068000020A8090020B1
:102AD00061000020A80100200060000800610008DB
:102AE00000690008007100080400FA0500ED00E02C
:102AF0005F4800780B2804D00C2803D00D2803D1A0
:102B000001E002E001E000E000BF00BF704759486B
:102B100000780B2804D00C2803D00D2803D101E045
:102B200002E001E000E000BF00BF704710B5FFF712
:102B3000A6F9FEF7FFFCFFF7C6FE10BD10B500209A
:102B40004D4908704D490870FF2214214C4803F08C
:102B50009EFB10BD10B5002048490870FF221421CB
:102B6000474803F094FB10BD70B500264548FEF7BA
:102B7000ABFD0546002D0AD14348007802210843E9
:102B8000414908700021012000F0EEFA5DE03E4866
:102B90000078022188433C49087000210D2000F094
:102BA000E3FA51E0344800782021084000284BD057
:102BB00031480078884330490870344804780C2C38
:102BC00002D1FFF7BBFF70BD0B2C3DD12B48007825
:102BD000062806D00021082000F0C6FAFFF7AEFF55
:102BE00032E0012E24D126492648FFF7A1FD002816
:102BF00015D10021022000F0B7FA2248FEF77FFD30
:102C00007D200001FDF747FC00BFBFF34F8F204838
:102C10002049C860BFF34F8F00BF00BFFEE700210F
:102C2000142000F0A1FAFFF789FFFFF793FF0BE0F4
:102C300000210F2000F098FA06221149114803F0F4
:102C4000E5FAFFF77BFF0126ACE700BFBBE710B555
:102C5000FDF737FB00F06DF8FFF77DFAFEF7CEFECB
:102C6000FFF760FC00F069FAFEF703FC10BD0000FE
:102C70005A0000205B0000205F0000206700002059
:102C8000A8090020610000205E00002068000020EC
:102C90000400FA0500ED00E01CB50121880401F0F4
:102CA000CCFA032000030090012168460171002145
:102CB00081710121C171032141716946234800F0EE
:102CC00091FE1CBD012000032049203108814000F5
:102CD00008817047012000031C4988614000886119
:102CE000704710B5012000031849203108814000C9
:102CF000164988619620FDF7CEFBFFF7EBFF142005
:102D0000FDF7C9FBFFF7DEFF10BD10B50120000382
:102D10000E49886140000D49203108819620FDF759
:102D2000BAFBFFF7D7FF1420FDF7B5FBFFF7CAFF8B
:102D300010BD10B5FFF7B0FFFFF7C4FF10BD10B511
:102D4000FFF7AAFFFFF7BEFF10BD00000004004818
:102D50001CB50121880401F070FA0120C002009026
:102D60000021684601710121C17103214171694649
:102D7000FB4800F037FE1CBD10B50121C902F84820
:102D800000F093FE10BD1CB50121880401F055FA36
:102D9000F4480090012168460171002181710121F0
:102DA000C171032141716946ED4800F01BFE1CBD55
:102DB0001CB50121880401F040FA04200090012193
:102DC00068460171002181710121C17103214171A6
:102DD0006946E34800F006FE1CBD1CB501218804CD
:102DE00001F02BFA042000900021684601710121B6
:102DF000C171032141716946D94800F0F3FD1CBD42
:102E0000002000E0401CC828FCDB704710B50421FE
:102E1000D34800F04AFE10BD10B5FFF7C9FF0420EB
:102E2000CF49886100028861FFF7EAFF0420CC499E
:102E300020310881FFF7E4FF01208002C8492031DA
:102E40000881FFF7DDFF10BD10B5FFF7B1FF0420CB
:102E5000C349203108810002C1498861FFF7D0FFD2
:102E60000420BF498861FFF7CBFF10BD10B5FFF705
:102E70009FFF0420BA492031088100020881FFF732
:102E8000BFFF01208002B6498861FFF7B9FF01202A
:102E90008002B34920310881FFF7B2FF10BD10B5A1
:102EA000FFF79BFF01208002AD4920310881FFF729
:102EB000A7FF01208002AA498861FFF7A1FFFFF761
:102EC000A5FF044601208002A54920310881FFF7B3
:102ED00097FF204610BD70B50546FFF769FF002437
:102EE00026E0012080029E49203108810720011B35
:102EF000012088402840002803D004209849886198
:102F000003E00420964920310881FFF779FF012072
:102F1000800293498861FFF773FF01208002904986
:102F200020310881072C00D104E0FFF769FF641C01
:102F3000082CD6DB00BFFFF7B2FF002801D101202B
:102F400070BD0020FCE770B50024FFF746FF0025A8
:102F500018E001208002824920310881FFF750FFEC
:102F6000012080027E498861FFF74AFFFFF74EFF8C
:102F70000419640001208002794920310881FFF79B
:102F80003FFF6D1C082DE4DB601070BDF7B582B00B
:102F900006460F4600200190FFF756FF00BF0124B0
:102FA000FFF73AFFF0B2FFF796FF0546002C03D07B
:102FB000002D01D0012000E000200446F8B2FFF708
:102FC0008AFF0546002C03D0002D01D0012000E02F
:102FD000002004460498FFF77EFF0546002C03D02E
:102FE000002D01D0012000E000200446FFF72CFF57
:102FF000002C00D005E00198401C019001980528A4
:10300000CDDB00BF04205649203108810002088131
:10301000204605B0F0BDF7B582B005460F4600204A
:103020000190FFF711FF00BF0124FFF7F5FEE8B2A2
:10303000FFF751FF0646002C03D0002E01D00120DF
:1030400000E000200446F8B2FFF745FF0646002CDA
:1030500003D0002E01D0012000E000200446FFF73D
:10306000CFFEFFF7D9FE691CC8B2FFF734FF064652
:10307000002C03D0002E01D0012000E000200446E7
:10308000FFF761FFC1B204980170FFF7DDFE002C6D
:1030900000D005E00198401C019001980528C3DB91
:1030A00000BF04202E4920310881000208812046FB
:1030B00005B0F0BD70B50546012080022849886141
:1030C0000520FDF7E8F9012080022549203108811B
:1030D0000520FDF7E0F900242AE0012080022049C4
:1030E000203108810120A0402840002803D004207E
:1030F0001B49886103E00420194920310881FF2021
:103100002D30FDF7BBF90120800215498861FF20B1
:103110002D30FDF7B3F901208002114920310881DB
:10312000072C00D106E0FF202D30FDF7A7F9641C25
:10313000082CD2DB00BF002070BD10B5FFF708FEE1
:10314000FFF721FE10BD10B5FFF702FEFFF71BFED3
:1031500004200349203108810002088110BD0000CD
:10316000000400480404000070B505460C462846DB
:10317000FFF7A0FF002C07D000BFFFF7FDFD0028E0
:10318000FBD02046FFF796FF70BD0024FFF7FBFD44
:1031900008E02046FFF78EFF601CC4B27D200001CE
:1031A000FDF779F9F5E710B500210220FFF7DCFF04
:1031B00010BD10B500210120FFF7D6FF10BD10B5DE
:1031C000FFF7F7FF7D200001FDF765F9FFF7EBFF43
:1031D0007D200001FDF75FF910BD00000748804722
:1031E00007480047FEE7FEE7FEE7FEE7FEE7FEE7EB
:1031F00004480549054A064B704700003F0A00088D
:10320000B5000008B80C0020B8120020B80E00204D
:10321000B80E00201CB50121C80401F00EF80120F1
:103220004003009001216846017100218171012154
:10323000C171032141716946104800F0D3FB1CBDE8
:10324000002804DD012149030C4A916104E00121B9
:1032500049030A4A20321181704710B50120FFF757
:10326000EFFF7D20C000FDF716F90020FFF7E8FF13
:103270007D20C000FDF70FF910BD000000080048D8
:103280003A483B490860002048608860C860394877
:1032900048617047002136498279002A35D00A46B4
:1032A000126803689A430B461A600A46526803681C
:1032B0009A430B465A60027951180A6803681A4308
:1032C0000A602B4A926803689A43294B9A601A460F
:1032D000D26803689A43264BDA604279102A0CD1EF
:1032E0001A46926803681A43214B9A601A46D268BC
:1032F00003681A431E4BDA600DE01D4942795118EC
:103300000A6803681A430A6005E0027951180A68DE
:1033100003689A430A6070470021016001710C2123
:103320004171002181717047114909690143104AB7
:1033300011617047014600200D4A52690A40002A77
:1033400001D0012000E00020704709494861704722
:1033500001460020064A52690A40002A01D0012095
:1033600000E0002070470249486170470000940F58
:1033700000040140FFFF6B0001460020FE4A106878
:103380004008400002460A431046FB4A106070475E
:10339000002806D0F849096810221143F64A116046
:1033A00005E0F549096810229143F34A116070471E
:1033B0000020F149096820221140002901D0012094
:1033C00000E000207047EC48006980210840002898
:1033D00004D0EA48E8494860E94848607047E64850
:1033E000006980210843E449086170470420E249EC
:1033F000C968C907C90F002901D0012010E0DE49C2
:10340000C96810221140002901D0022008E0DA49E1
:10341000C96804221140002901D0032000E00420E3
:10342000704710B503460424FFF7E0FF044603E0AD
:10343000FFF7DCFF04465B1E012C01D1002BF7D106
:10344000002B00D10524204610BD30B504460425CC
:103450000B200004FFF7E5FF0546042D17D1C648F1
:10346000006902210843C4490861084644610069B3
:1034700040210843C04908610B200004FFF7D1FF39
:103480000546BD48006902218843BB4908612846BA
:1034900030BD10B504240B200004FFF7C2FF044622
:1034A000042C16D1B448006904210843B2490861CC
:1034B0000846006940210843AF4908610B20000419
:1034C000FFF7AFFF0446AC48006904218843AA49CE
:1034D0000861204610BD78B506460C46042500203C
:1034E00000900B200004FFF79CFF0546042D24D11B
:1034F000A1480069012108439F49086134800B20DD
:103500000004FFF78EFF0546042D10D1B01C00907B
:10351000200C009908800B200004FFF782FF05466D
:1035200095480069400840009349086105E09248C9
:1035300000694008400090490861284678BD70B590
:1035400004460D4604260B200004FFF76AFF0646DA
:10355000042E11D188480069012108438649086179
:1035600025800B200004FFF75CFF064682480069B7
:103570004008400080490861304670BD7E480069BF
:10358000012149020840002804D17C487A4988601A
:103590007B48886070477848006901214902884368
:1035A000754908617047744800690121490308435F
:1035B00071490861704700206F49C96906221140AE
:1035C000002901D0012000E00020704730B5AA2575
:1035D0000424FFF7F0FF002800D000250B20000492
:1035E000FFF71FFF0446042C36D1634800692021F1
:1035F00008436149086108460069402108435E4963
:1036000008610B200004FFF70CFF0446042C1BD1BB
:1036100059480069202188435749086108460069D4
:103620001021084354490861564805800B200004C6
:10363000FFF7F7FE0446052C0ED04F480069102115
:1036400088434D49086107E0052C05D04A480069C8
:103650001021884348490861204630BDF0B5044632
:10366000494E37460425E443E6B2FF2000022040DD
:10367000070A0B200004FFF7D4FE0546042D21D1D4
:103680003D480069102108433B490861FF2E06D0E0
:103690003C4806810B200004FFF7C3FE0546042DBD
:1036A00008D1FF2F06D0374847810B200004FFF7D1
:1036B000B8FE0546052D05D02F4800691021884326
:1036C0002D4908612846F0BD30B5054604240B207D
:1036D0000004FFF7A6FE0446042C36D126480069F4
:1036E0002021084324490861084600694021084315
:1036F000214908610B200004FFF793FE0446042CC7
:103700001BD11D480069202188431B4908610846D8
:10371000006910210843184908611A4805800B20E8
:103720000004FFF77EFE0446052C0ED01248006907
:10373000102188431049086107E0052C05D00E4888
:103740000069202188430C490861204630BDF0B54E
:1037500005460E46174604240B200004FFF761FEC1
:103760000446042C24D1044800691021084302496E
:1037700008612846304309E00020024023016745E4
:10378000AB89EFCD00F8FF1FFFFF0000F8213943A0
:103790000843714948800B200004FFF742FE0446AD
:1037A000052C05D06D480069102188436B490861DC
:1037B0002046F0BD30B5054604240B200004FFF779
:1037C00030FE0446042C16D16448006910210843D9
:1037D00062490861EF2028435F4948800B200004BC
:1037E000FFF71FFE0446052C05D05C480069102138
:1037F00088435A490861204630BD30B50546042447
:103800000B200004FFF70DFE0446042C16D153488C
:1038100000691021084351490861DF2028434E49BF
:1038200048800B200004FFF7FCFD0446052C05D062
:103830004A4800691021884348490861204630BD44
:1038400030B5054604240B200004FFF7EAFD0446CA
:10385000042C16D141480069102108433F490861F2
:10386000BF2028433C4948800B200004FFF7D9FDC6
:103870000446052C05D03948006910218843374992
:103880000861204630BD30B5054604240B200004F5
:10389000FFF7C7FD0446042C16D1304800691021FB
:1038A00008432E490861882028432B4948800B2073
:1038B0000004FFF7B6FD0446052C05D02748006933
:1038C0001021884325490861204630BD70B5054662
:1038D0000E4604240B200004FFF7A3FD0446042C2D
:1038E00013D11E480069102108431C4908612E802D
:1038F0000B200004FFF795FD0446052C05D0174862
:1039000000691021884315490861204670BD13489D
:10391000C0690004000E70471048006A7047002913
:1039200005D00E4A126902430C4B1A6104E00B4A9F
:1039300012698243094B1A61704701460020074A09
:10394000D2680A40002A01D0012000E00020704720
:103950000249C8607047000000F8FF1F00200240C5
:1039600010B504460920C006844209D1012148044B
:1039700000F08DFC00210120400400F088FC30E0C4
:103980006E48844208D10121000200F080FC002131
:10399000200200F07CFC24E06948844208D1012127
:1039A000000200F074FC0021200200F070FC18E01E
:1039B0006448844209D10121080500F068FC002117
:1039C0000120000500F063FC0BE05F48844208D151
:1039D0000121880500F05BFC00210120800500F03A
:1039E00056FC10BDF0B50A4600210023002400BF9C
:1039F0003DE001258D402B4615681D402C469C421C
:103A000034D11579012D02D01579022D16D1856892
:103A10004F000326BE40B543856055794E00B54042
:103A2000866835438560858801268E40B54385804C
:103A3000858896798E40B6B23543858005684F00FB
:103A40000326BE40B543056015794E00B5400668B3
:103A500035430560C5684F000326BE40B543C560C9
:103A6000D5794E00B540C6683543C560491C10295C
:103A7000BFD3F0BD354901600021017101214171C1
:103A800000218171C171704708B5012212040092B2
:103A9000009A0A430092009AC261C161009AC26111
:103AA000C2690092C269009208BD02460020138AD2
:103AB0000B40002B01D0012000E0002070470146A0
:103AC000088A704702460020938A0B40002B01D0E1
:103AD000012000E0002070470146888A704781611C
:103AE000704701857047002A01D0816100E001859F
:103AF000704781827047F0B5002300244D07EE0E19
:103B00001546B5402B46CD10AE0005462035AD59C3
:103B10004E07F70E0F26BE40B543CE10B60007463F
:103B20002037BD51CD10AE003D46AD591D432C464A
:103B3000CD10AD003E467451F0BD000000040048B9
:103B400000080048000C004800140048FFFF000077
:103B500000218278002A27D0274A03231B02D2188B
:103B600003789B109B00D15802789207D30EFF2256
:103B70009A400B469343194642789207120E0378F7
:103B80009B07DB0E9A4011431B4A03231B02D218EA
:103B900003789B109B00D1500278D306DB0E0122E4
:103BA0009A40154B1A6007E00278D306DB0E01221B
:103BB0009A40114B80331A607047002905D00F4A94
:103BC000126902430D4B1A6104E00C4A12698243E8
:103BD0000A4B1A617047042806D109490969042271
:103BE0001143074A116105E005490969042291431F
:103BF000034A11617047000000E100E000ED00E0C1
:103C000000E000E010B50121080700F05CFB002196
:103C10000120000700F057FB10BD002807D04649DF
:103C20000968FF2201321143434A116006E042490C
:103C30000968FF22013291433F4A116070470146F3
:103C400000203D4A1068E02302469A43104602468F
:103C50000A431046384A10607047002806D036499B
:103C6000096810221143344A116005E0324909689D
:103C700010229143304A11607047002905D02E4A26
:103C8000526802432C4B5A6004E02B4A526882432C
:103C9000294B5A6070472949096904229143274AF0
:103CA0001161012801D130BF00E020BF704710B57D
:103CB00002460020204B186880088000034613430A
:103CC00018461D4B18601D4B1B69042423431B4CD5
:103CD0002361012901D130BF00E020BF174B1B69D0
:103CE0000424A343154C236110BD1348006804212C
:103CF00008431149086008460068022108430E493C
:103D000008600E480069042108430C49086130BF6F
:103D1000704701460020084A52680A40002A01D034
:103D2000012000E000207047034909688200114328
:103D3000014A1160704700000070004000ED00E093
:103D4000FD48006801210843FB49086008464068B7
:103D5000FA490840F849486008460068F8490840B0
:103D6000F549086008460068012189048843F24942
:103D70000860084640683F2109048843EE494860CE
:103D80000846C06A00090001C8620846006BFF21AE
:103D900054318843E84908630846406B40084000B6
:103DA00048630020886070470021E34A9170114603
:103DB0008870704710B50246002100230020511181
:103DC000002902D1DC4C23680BE0012902D1DA4C36
:103DD000236A06E0022902D1D74C636A01E0D64C7F
:103DE000636BD106C90E01248C401C40002C01D00D
:103DF000012000E0002010BD38B500200090002414
:103E0000002500BF1120FFF7D5FF05460098401C94
:103E10000090052109030098884201D0002DF1D0BF
:103E20001120FFF7C7FF002801D0012400E0002483
:103E3000204638BD01460020BF4A1068F8230246DC
:103E40009A431046CA001043BB4A106070470028CE
:103E500006D0B949096801221143B74A116005E04B
:103E6000B549096849084900B34A116070470146DD
:103E70000020B14A506BF82302469A431046CA000C
:103E80001043AD4A50637047002806D0AA49496BD9
:103E900001221143A84A516305E0A749496B49082B
:103EA0004900A54A51637047002806D0A249496BD2
:103EB00004229143A04A516305E09F49496B0422C3
:103EC00011439D4A516370479B49096A490849005B
:103ED000994A11621146096A04229143964A116275
:103EE0001146096A0143116270479349096A182211
:103EF0009143914A11621146096A01431162704768
:103F0000002806D08C49496A012211438A4A51622D
:103F100005E08949496A49084900874A5162704762
:103F2000854A52683D231B049A43834B5A601A46C4
:103F3000526803460B431A437F4B5A607047002870
:103F400007D07D4909680122120611437A4A11609F
:103F500006E079490968012212069143764A116008
:103F6000704701460020744AD06A000900010246E9
:103F70000A431046704AD0627047002807D06E4945
:103F800009680122D20411436B4A116006E06A49B4
:103F900009680122D2049143674A1160704766495B
:103FA000C871704701460020634A5068800880004D
:103FB00002460A431046604A506070475E484068B7
:103FC0000C2108407047014600205B4A5068F023EE
:103FD00002469A43104602460A431046564A50602B
:103FE000704701460020544A506807231B020246CE
:103FF0009A43104602460A4310464F4A50607047A3
:104000004D4949680122920391434B4A5160114640
:10401000496882B21143484A51601146096B9215B2
:104020009143454A11631146096B020C1143424A00
:10403000116370474049096B402291433E4A116326
:104040001146096B0143116370473B49096B10220C
:104050009143394A11631146096B0143116370475B
:104060003549096B89088900334A11631146096B88
:10407000014311637047FEB5044600250026002069
:104080000190009000272C4840680C21084005460C
:10409000002D04D0042D05D0082D28D105E0294895
:1040A000206027E02748206024E0234840680F2153
:1040B0008904084006462048406801210904084058
:1040C0000190B00C861C0198002803D11E48704353
:1040D00020600BE01848C06A0007000F401C0090E9
:1040E0001848009902F0FCF87043206002E015487F
:1040F000206000BF00BF10484068F021084005461E
:104100002D091248475D2068F84060600A48406801
:1041100007210902084005462D0A0C48475D6068E2
:10412000F840A0600448006BFF210131084088423C
:1041300010D00748E0601BE0001002400CB8FFF808
:10414000FFFFF6FE00127A0000093D006900002022
:10415000809FD50075484068012189030840884246
:1041600003D0A0684008E06002E0A0688008E0603A
:104170006E48006B40210840402802D06C48206106
:1041800002E00120C00320616848006B1021084054
:10419000102802D06748606101E0206860616348D0
:1041A000006B8007800F002802D1A068A06119E091
:1041B0005E48006B8007800F012802D12068A06153
:1041C00010E05A48006B8007800F022802D180035C
:1041D000A06107E05548006B8007800F032801D1DC
:1041E0005448A061FEBD5149096A01434F4A11621A
:1041F0007047002807D04D49096A0122D2031143B4
:104200004A4A116206E04949096A0122D2039143F0
:10421000464A11627047002807D04449096A0122C2
:1042200012041143414A116206E04049096A012221
:10423000120491433D4A11627047002905D03B4A60
:1042400052690243394B5A6104E0384A5269824349
:10425000364B5A617047002905D0344A92690243AF
:10426000324B9A6104E0314A926982432F4B9A6142
:104270007047002905D02D4AD26902432B4BDA61E1
:1042800004E02A4AD2698243284BDA617047002948
:1042900005D0264A926A0243244B9A6204E0234ADC
:1042A000926A8243214B9A627047002905D01F4AC7
:1042B000D26802431D4BDA6004E01C4AD268824394
:1042C0001A4BDA607047002905D0184A1269024378
:1042D000164B1A6104E0154A12698243134B1A61A6
:1042E0007047002905D0114A527A02430F4B5A7287
:1042F00004E00E4A527A82430C4B5A7270470B48C4
:10430000406A01210906084308494862704701468E
:104310000020064A92680A40002A01D0012000E0ED
:104320000020704701498872704700000010024069
:104330001280000000127A0010B50446E34884425F
:1043400008D101218014FFF7B0FF0021A014FFF76E
:10435000ACFF0AE0DE48844207D101210014FFF7D8
:10436000B2FF00212014FFF7AEFF10BD0021018035
:1043700041800721090281800021C18001814181A2
:104380008181C18107210182704710B50022028816
:10439000C1239B011A400B88CC892343CC8823433B
:1043A0000C8923434C8923438C8923431A4302807D
:1043B0008288C84B1A408B881A4382800B8A0382FA
:1043C0000288C54B1A404B881A430280838BC34C2A
:1043D0002340838310BD0021018041808180C18002
:1043E00002218160002181817047F0B58DB00546C2
:1043F0000C4600200C9002270B9001200A9000260A
:1044000000200290A88BB349BF390840A88302203E
:104410002884A88B0C90A068022802D100200B9061
:1044200038E0A088002802D101200A9001E0022093
:104430000A9003A8FFF71FFE03980290E08801216D
:10444000490288420AD1A168029A120A0A235A43F1
:10445000104601F045FF401D86B20CE00A9841016C
:10446000029801F03DFF0A2148430190A16801F044
:1044700037FF401D86B20A21304601F031FF064663
:10448000F007C00F0B900B98301AC003070C0B9865
:1044900000020B90022F01DBFF2F02DD022700201C
:1044A0000B90E0880B99084338432884A088A189A1
:1044B000084361880843218808430121C902084351
:1044C0000C9908430C900C98A8830DB0F0BD0029FE
:1044D00004D0028840231A43028004E002887E4B05
:1044E0003C3B1A4002807047002904D08288102388
:1044F0001A43828004E08288774B0C3B1A4082800A
:104500007047002905D0828B01239B021A438283C6
:1045100003E0828B724B1A40828370470A46002167
:1045200081886C4B19400B461343194681807047B4
:1045300082886C4B1A40828082880A43828070474E
:1045400001229203914204D102880B461A43028051
:1045500003E00288644B1A40028070475E4AFC3ACE
:10456000914205D00288FF2301331A43028004E000
:104570000288594BFC3B1A4002807047002904D046
:10458000828804231A43828003E08288524B1A40B7
:1045900082807047002904D0828808231A438280D1
:1045A00004E082884C4B1B1F1A4082807047002217
:1045B00002460C321170704781817047014600221B
:1045C0000A460C3210787047014688897047028885
:1045D000424B1A40028002880A4302807047002939
:1045E00005D0028801235B031A43028003E002889E
:1045F0003E4B1A400280704701880122120311438A
:104600000180704702460020012901D0108B00E094
:10461000908A70470146088A7047002A03D0838831
:104620000B43838002E083888B43838070478288BA
:104630002F4B1A40828082880A438280704730B5AF
:10464000002400230C110125A540ABB2002A03D0A1
:1046500085881D43858002E085889D43858030BD27
:10466000014608890322D20210407047014608899A
:1046700003225202104070470246002013890B406B
:10468000002B01D0012000E000207047CA430281C6
:104690007047F0B5024600200024002300250F07D4
:1046A0003F0F0126BE40B4B20B1101269E40B3B2AB
:1046B00096881E40354616892640002E03D0002DD0
:1046C00001D0012000E00020F0BD000000300140DA
:1046D00000380040FFF00000FBFF0000FFF7000083
:1046E000FFFB0000FFEF0000FFBF0000FFDF000046
:1046F000FF9F00003A4800688007800F3849086033
:104700000020886000213648C160016141618069F4
:10471000FF2101310843324988617047014600207A
:104720002F4A10688008800002460A4310462C4A2F
:1047300010607047002905D0294A12680243284BAF
:104740001A6004E0264A12688243254B1A607047BB
:10475000002905D0224A12680243214B1A6004E066
:104760001F4A126882431E4B1A60704730B5002200
:104770008B071C0F0F23A3401A46194B08338C10CC
:10478000A4001B599343164C08348D10AD0063519F
:1047900023468C10A4001B598C07250F0446AC40FF
:1047A00023430F4C08348D10AD00635130BD0C49CC
:1047B000896901430A4A9161704701460020084A0D
:1047C0009269FF2301331A40002A01D0012000E042
:1047D00000207047024989690143014A916170478D
:1047E0000000014010B50446FE48844208D1012172
:1047F000C014FFF75AFD0021E014FFF756FD56E004
:1048000001208007844208D101210846FFF75BFDA3
:1048100000210120FFF757FD49E0F348844208D109
:1048200001210220FFF74FFD00210220FFF74BFD81
:104830003DE0EE48844208D101211020FFF743FDFE
:1048400000211020FFF73FFD31E0E948844208D104
:1048500001218015FFF737FD0021A015FFF733FD7B
:1048600025E0E448844209D101210804FFF71DFD39
:10487000002101200004FFF718FD18E0DE48844203
:1048800009D101214804FFF710FD00210120400457
:10489000FFF70BFD0BE0D948844208D101218804C1
:1048A000FFF703FD002101208004FFF7FEFC10BD8F
:1048B00000220288CB4B984206D001239B079842E6
:1048C00002D0C94B984203D1CD4B1A404B881A43B2
:1048D000C64B984203D0CB4B1A400B891A43028037
:1048E0004B68C3620B880385BE4B984208D0C14B0E
:1048F000984205D0C04B984202D0C04B984201D19B
:104900008B7A03860123838270470021C94341606B
:10491000002101800181418081727047018582827E
:1049200070470A4600210188B54B19400B461343D6
:1049300019460180704741627047C1627047014665
:10494000486A70470146088D7047002904D00288E4
:1049500002231A43028004E00288A94B6E331A40F6
:1049600002807047002904D0028804231A43028081
:1049700004E00288A24B6C331A4002807047002981
:1049800004D0028880231A43028004E002889C4BF2
:10499000103B1A40028070470288994B68331A40D6
:1049A000028002880A43028070470288954B1A40B1
:1049B000028002880A4302807047002904D00288DE
:1049C00001231A43028004E002888D4B6F331A40A2
:1049D000028070470A884B881A438B881A43CB8819
:1049E0001A430B891A434B891A438B891A43442370
:1049F0001A5270470021018041808180C18001816D
:104A0000418181817047002907D04422125A012335
:104A1000DB031A4344231A5205E04422125A53047A
:104A20005B0C44221352704770B50024002200230F
:104A3000058C734E6F3635400584028C8388048B59
:104A40006F4D2C40B51E2C400D882C43751E2A40FE
:104A50008D892A434D882A43624DA84208D0654D6E
:104A6000A84205D0644DA84202D0644DA84212D19C
:104A7000634D68352A40CD892A43614D6C352A4003
:104A80008D882A435E4D903D2B405F4D2B400D8A13
:104A90002B434D8A2B43838004838D6845630284B6
:104AA00070BD70B5002400220023058C544E603682
:104AB00035400584028C8388048B544D2C40514D25
:104AC0002C400D782D062D0C2C434D4D50352A4091
:104AD0008D892D052D0C2A434D882D052D0C2A433B
:104AE000404DA84202D0434DA8421CD1484D2B4016
:104AF0000D8AAD042D0C2B433A4DA84213D1404DE5
:104B0000103D2A40CD892D052D0C2A433C4D3035D2
:104B10002A408D882D052D0C2A433E4D2B404D8A71
:104B2000AD042D0C2B43838004838D688563028440
:104B300070BD70B5002400220023058C304E903EDD
:104B400035400584028C8388848B2D4D2C402C4D60
:104B50006D352C400D882C432B4D2A400D7B2D06A6
:104B60002D0C2A438D782D062D0C2A431D4DA8426D
:104B700017D1284D2A408D7B2D062D0C2A43244D1C
:104B80002A400D792D062D0C2A43234D2B40234D11
:104B90002B400D8A2D052D0C2B434D8A2D052D0CF8
:104BA0002B43838084838D68C563028470BD70B598
:104BB000002200230024058C174E35400584038C09
:104BC0008488828B114D2A400E4D2A400D782D0687
:104BD0002D0C2A43114D2B400D7B2D072D0C2B4303
:104BE0008D781DE0002C01400004004000100040C2
:104BF00000200040004001400044014000480140C6
:104C00008FFF0000FFFC0000FFFD0000FF8F000091
:104C1000FFFB0000FFF70000FFEF0000FFDF0000D8
:104C20002D072D0C2B43FE4DA84205D1FD4D2C40E8
:104C30000D8AAD052D0C2C43848082838D6805641C
:104C4000038470BD00210180418081808160818169
:104C5000C18101824182704770B503460020002463
:104C60001846183001258D40ACB21D8CA5431D841B
:104C7000002901D0082909D14D102818056870268F
:104C8000B54305600568154305600DE00D1F2D0453
:104C90006D0C2818056807263603B54305600568BE
:104CA0001606360C3543056070BD4163704781635D
:104CB0007047C1637047016470470A460021018B49
:104CC000D94B19400B4613431946018370470A46D6
:104CD0000021018BD54B194013061B0C194301838E
:104CE00070470A460021818BCF4B19400B46134376
:104CF0001946818370470A460021818BCB4B1940AE
:104D000013061B0C194381837047002904D0828845
:104D100001231A43828004E08288C34B6F331A4018
:104D2000828070470A460021018BBF4B68331940CF
:104D30000B4613431946018370470A460021018B35
:104D4000BB4B194013061B0C1943018370470A46DD
:104D50000021818BB44B683319400B46134319462D
:104D6000818370470A460021818BB14B194013069D
:104D70001B0C1943818370470A460021018BAA4B03
:104D80006C3319400B4613431946018370470A469A
:104D90000021018BA74B194013061B0C19430183FB
:104DA00070470A460021818B9F4B6C3319400B469C
:104DB00013431946818370470A460021818B9D4B1E
:104DC000194013061B0C1943818370470A460021C2
:104DD000018B954B103B19400B4613431946018339
:104DE00070470A460021018B4904490C13061B0C2D
:104DF0001943018370470A460021818B8A4B103B7F
:104E000019400B4613431946818370470A46002117
:104E1000818B4904490C13061B0C1943818370478D
:104E20000A460021018C804B6E3319400B46134318
:104E30001946018470470A460021018C7A4B683379
:104E400019400B4613431946018470470A46002156
:104E5000018C754B5033194013051B0C1943018409
:104E600070470A460021018C6F4B103B1940130517
:104E70001B0C1943018470470A460021018C6E4BBC
:104E8000194013061B0C1943018470470A46002180
:104E9000018C674B194013061B0C194301847047A2
:104EA0000A460021018C654B194013071B0C19435E
:104EB0000184704702895C4B68331A400281028981
:104EC0000A430281704730B5002301248C40A3B20D
:104ED000048C9C430484048C15468D40ADB22C4355
:104EE000048430BD30B5002304248C40A3B2048C6C
:104EF0009C430484048C15468D40ADB22C4304843D
:104F000030BD002904D0828804231A43828004E043
:104F10008288454B6C331A4082807047828B484BA5
:104F20001A408283828B0B061B0C1A4382837047C4
:104F3000F8B50C460021002500260096068C414F4E
:104F40003E400684818B058C2607360C00963E4E2B
:104F500031401606360C31431E07360C31433B4EAA
:104F6000354001273F03009E3E433543818305843E
:104F7000F8BD828B2C4B64331A408283828B0A43A8
:104F800082837047F8B50C46002100250026009664
:104F9000068C254F903F3E400684818B058C26066B
:104FA000360C0096204E833E31401E05360C1643CB
:104FB0003143274E3540FF270137009E3E4335439E
:104FC00081830584F8BD028B1D4B1A400283028B3E
:104FD0000B061B0C1A4302837047F8B50C460021E0
:104FE000002500260096068C0F4F60373E40068451
:104FF000018B058C2605360C0096134E31401E079A
:10500000360C31431606360C3143074E303E3540E0
:105010001027009E3E43354301830584F8BD000000
:10502000002C0140FFBF00008FFF0000FF8F000039
:10503000FFF70000FFFB0000FFFD0000FFDF0000A6
:10504000FFF30000FFEF0000FF0C0000FF5F000017
:10505000FFF50000028BD84B1A400283028B0A43F3
:1050600002837047F0B50C4600210025068CD24F14
:105070000B373E400684018B058CCF4EE73E314016
:105080001E05360C16433143CB4EB61C3540012667
:105090002643354301830584F0BD70B505460C46B3
:1050A000208800280AD12389A28861882846FFF732
:1050B000D9FFE1882846FFF7CDFF25E020880428A6
:1050C0000AD12389A28861882846FFF786FFE188F4
:1050D0002846FFF778FF17E0208808280AD123899F
:1050E000A28861882846FFF74DFFE1882846FFF730
:1050F00040FF09E02389A28861882846FFF718FF4E
:10510000E1882846FFF70AFF70BD00210180418039
:10511000012181800021C18001817047F8B50546D9
:105120000C46002601276088002801D1022600E0F5
:105130000026A088012801D1022700E0012720884D
:10514000002814D12389A28861882846FFF78AFFA6
:10515000E1882846FFF77EFF23893A4631462846F4
:10516000FFF73BFFE1882846FFF72DFF13E0238977
:10517000A28861882846FFF730FFE1882846FFF7BC
:1051800022FF23893A4631462846FFF76BFFE18824
:105190002846FFF75FFFF8BD0146486B70470146A0
:1051A000886B70470146C86B70470146086C7047B2
:1051B000002A03D083890B43838102E083898B43D8
:1051C000838170478182704702460020138A0B401A
:1051D000002B01D0012000E000207047CA4302826A
:1051E000704730B50246002000230024158A0D4088
:1051F0002B4695890D402C46002B03D0002C01D066
:10520000012000E0002030BDCA430282704710B583
:105210000B4613434824235210BD002A03D0838930
:105220000B43838102E083898B438381704700298C
:1052300004D0828808231A43828004E082885E4B6F
:105240001B1D1A408280704701895B4A521D114024
:10525000018170470A4600210189574B643B194080
:105260000B46134319460181704730B504460D467D
:1052700029462046FFF7EEFF2089072108432081B9
:1052800030BDF8B504460D4616461F46602D06D1C2
:105290003B46012231462046FFF79FFE05E03B4694
:1052A000012231462046FFF7DDFE29462046FFF762
:1052B000D1FF2089072108432081F8BD30B50C4675
:1052C00000210189C9B21D062D0C15432543294330
:1052D000018130BDFFB505460E46174600243A460B
:1052E00031462846039BFFF7E9FF2C893248401DD1
:1052F00004400720044330486438044070200443CD
:105300002C81FFBDF0B504460D4616461F463B46B0
:10531000324629462046FFF7D1FF20890121890323
:1053200008432081F0BD8288234B643B1A40828071
:1053300082880A438280704702891F4B5B1D1A4096
:10534000028102890A430281704702891A4B743B29
:105350001A40028102890A4302817047F0B50C4667
:105360000021002500260189058B068C124F7F1D28
:1053700039400F4627433946104F3D40FF2702373B
:105380003D430D4F9E3F3E401F053F0C17433E439C
:10539000018105830684F0BD002904D08288802322
:1053A0001A43828004E08288034B743B1A40828057
:1053B0007047502211527047F3FF0000FCFC0000C0
:1053C00010B50446F648844209D101218803FEF74E
:1053D0006CFF002101208003FEF767FF0BE0F1481E
:1053E000844208D101214804FEF76DFF002101200D
:1053F0004004FEF768FF10BDF0B589B004460D46C5
:105400000027002008900026206840084000206007
:10541000666803210903304688430646A8680643A8
:1054200066602668E0480640E968686808432969BC
:10543000084306432660A6680321090230468843D4
:10544000064668690643A66001A8FEF714FED44824
:10545000844202D10798089001E0039808902068E0
:105460000121C903084000280CD02968089A50007F
:1054700000F036FF07462968089A500000F030FF18
:105480000E4609E02968089800F02AFF07462968B7
:10549000089800F025FF0E4628684008B04200D862
:1054A0007F1C20680121C9030840002806D0380766
:1054B000460F3846BD49084030430746A78109B02A
:1054C000F0BD4B21C9010160002141608160C160D4
:1054D0000C21016100214161704710B50022426832
:1054E0000F2424021346A3431A464C680B68234337
:1054F0008C682343CC6823431A43426010BD0021CB
:10550000016041608160C1607047002904D0026879
:1055100001231A43026003E002685208520002604D
:105520007047002A03D003680B43036002E003685E
:105530008B4303607047002905D002680123DB0319
:105540001A43026004E002680123DB039A4302600D
:105550007047002905D082680123DB021A4382606C
:1055600004E082680123DB029A43826070470029CD
:1055700005D042680123DB041A43426004E042681C
:105580000123DB049A4342607047002905D042683A
:1055900001239B041A43426004E0426801239B04F8
:1055A0009A4342607047002A03D043680B4343602C
:1055B00002E043688B4343607047002905D042688E
:1055C0000123DB031A43426004E042680123DB034A
:1055D0009A4342607047002905D042680123DB05E9
:1055E0001A43426004E042680123DB059A434260AB
:1055F00070474269120E1206426142690A434261D3
:105600007047028AFF231B021A400282028A0A4361
:1056100002827047002904D0026802231A43026004
:1056200003E0026802239A43026070478268032302
:105630001B059A43826082680A4382607047002992
:1056400005D0426801231B051A43426004E042680A
:1056500001231B059A4342607047426803235B05A0
:105660009A43426042680A4342607047CA05D20DBD
:10567000028570470146888CC005C00D704742689E
:105680001202120A426042680B061A4342607047D7
:10569000002905D0026801235B031A43026004E07D
:1056A000026801235B039A4302607047026801238A
:1056B000DB029A43026002680A4302607047426854
:1056C00010239A43426042680A434260704742682E
:1056D00020239A43426042680A434260704700298F
:1056E00005D0426801239B031A43426004E04268EC
:1056F00001239B039A4342607047002904D08268CB
:1057000008231A43826003E0826808239A43826078
:105710007047028AD2B20282028A0B021A430282C4
:105720007047002904D0826820231A43826003E076
:10573000826820239A4382607047002904D08268DF
:1057400010231A43826003E0826810239A43826028
:105750007047826807235B049A43826082684B0427
:105760001A438260704742691202120A426142691A
:105770000B061A4342617047826804239A43826091
:1057800082680A4382607047002904D0826802233D
:105790001A43826003E0826802239A438260704762
:1057A0000038014000440040F3E9FFFFF0FF000033
:1057B000002905D0826801239B031A43826004E01C
:1057C000826801239B039A438260704782680123A9
:1057D000DB039A43826082680A43826070470268F2
:1057E0001F235B059A43026002684B051A4302605F
:1057F000704702681F231B049A43026002680B046F
:105800001A4302607047002A03D083680B43836009
:1058100002E083688B4383607047826801235B03E7
:105820009A43826082680A4382607047F8B50346F3
:105830000024002600960025002018460E04340E91
:10584000CEB200960127009EB7403D46022C01D102
:10585000001D02E0032C00D10830002A03D00668A6
:105860002E43066002E00668AE430660F8BD002ADB
:1058700003D0038B0B43038302E0038B8B4303832F
:105880007047826801231B039A43826082680A433F
:105890008260704702460020D3690B40002B01D084
:1058A000012000E0002070470162704770B5024699
:1058B0000B4600240021002500201E04350ED9B21D
:1058C00001268E403146012D02D11668314006E096
:1058D000022D02D15668314001E0966831401C0C1F
:1058E0000126A6403446D6693440002903D0002C56
:1058F00001D0012000E0002070BD10B5002300227F
:105900000B0C01249C402246026210BD10B53B489E
:105910003B4908603B484860012040020881002064
:105920004881887488810A2088820020C8811420D8
:10593000C882002008823C200883002000F0B9F8CB
:10594000002806D100F068F8402000F0D2F90120CC
:1059500010BD0020FCE770B505460C4672B6E1B2FA
:10596000284600F0B1F962B60120FAF794FD402014
:1059700000F0BFF970BDF3B583B00446002002907B
:105980002078001F85B23C2D02DD002005B0F0BD5F
:10599000A07801900198012801DA0020F6E7E77865
:1059A000012F01DA0020F1E7781E3C21484386B23E
:1059B000701901214902884201DD0020E6E70499BF
:1059C00088192A46211D00F021FC0198874202D146
:1059D000701980B202900298D8E730B585B00546BC
:1059E0000C46142208496846FAF7B6FBE01D81B25E
:1059F0006846FFF7B0FF002005B030BDFC0900206D
:105A00003C0C0020FC0B0020AC64000810B5812188
:105A1000012000F0D2FB10BD3EB5044600210291EA
:105A200001910091FFF7F2FF60002018A54A115C78
:105A3000062000F0C2FB60002018401CA14A115C47
:105A4000072000F0BAFB60002018801C9D4A115C02
:105A5000082000F0B2FB02A9062000F0B6FB01A965
:105A6000072000F0B2FB6946082000F0AEFB6000A2
:105A700020189449095C6846007A814201D00020D0
:105A80003EBD60002018401C8E49085C69460979BB
:105A9000884201D00020F3E760002018801C89496B
:105AA000085C69460978884201D00020E8E70120B7
:105AB000E6E738B5044600200090022C01DD012005
:105AC00038BD00F0EDFA00F004FB00F0FCFA5521BF
:105AD00000916946422000F078FB68460078401C3F
